:020000040800F2
:1000000000C0002069080008990600089B06000847
:100010009D0600089F060008A106000800000000D9
:10002000000000000000000000000000A30600081F
:10003000A506000800000000A7060008A9060008A1
:10004000B1080008B1080008B1080008B1080008AC
:10005000B1080008B1080008B1080008B10800089C
:10006000B1080008B1080008B1080008B10800088C
:10007000B1080008B1080008B1060008C106000870
:10008000B1080008B1080008B1080008B10800086C
:10009000B1080008B1080008B1080008B10800085C
:1000A000B1080008B1080008B1080008B10800084C
:1000B000B1080008B1080008B1080008B10800083C
:1000C000B1080008B1080008B1080008B10800082C
:1000D000B1080008D1060008B1080008B1080008FE
:1000E000B1080008B1080008B1080008B10800080C
:1000F000B1080008B1080008B1080008B1080008FC
:10010000B1080008B1080008B1080008B1080008EB
:10011000B1080008B1080008B1080008B1080008DB
:10012000B1080008E1060008B1080008B10800089D
:1001300000000000000000000000000000000000BF
:1001400000000000000000000000000000000000AF
:10015000000000000000000000000000000000009F
:10016000000000000000000000000000000000008F
:10017000000000000000000000000000000000007F
:10018000000000000000000000000000000000006F
:10019000000000000000000000000000000000005F
:1001A000000000000000000000000000000000004F
:1001B000000000000000000000000000000000003F
:1001C000000000000000000000000000000000002F
:1001D000000000000000000000000000000000001F
:0401E0005FF8E0F1F3
:1001E4000348044B834202D0034B03B118477047C2
:1001F4003C0400203C04002000000000054806499F
:100204000B1AD90F01EBA301491002D0034B03B120
:10021400184770473C0400203C0400200000000004
:1002240010B5064C237843B9FFF7DAFF044B13B13A
:100234000448AFF300800123237010BD3C04002068
:10024400000000002C22000808B5044B1BB104492F
:100254000448AFF30080BDE80840CFE70000000089
:10026400400400202C220008002301461A461846A8
:1002740000F08CB838B5084B084D5B1B9C1007D0B8
:10028400043B1D44013C55F804399847002CF9D12E
:10029400BDE8384001F0CEBF802200087C2200086F
:1002A40070B50D4E0D4D761BB61006D0002455F8D2
:1002B400043B01349847A642F9D1094E094D01F097
:1002C400B3FF761BB61006D0002455F8043B013466
:1002D4009847A642F9D170BD742200087422000820
:1002E4007C22000874220008830730B548D0541ECD
:1002F400002A3FD00346CAB201E0013C3AD303F8D6
:10030400012B9D07F9D1032C2DD9CDB245EA052542
:100314000F2C45EA054536D9A4F1100222F00F0C42
:1003240003F1200EE6444FEA121C03F1100242E9E5
:10033400045542E9025510327245F8D10CF101021C
:1003440014F00C0F03EB021204F00F0C13D0ACF1F9
:10035400040323F003030433134442F8045B93427D
:10036400FBD10CF003042CB1CAB21C4403F8012BDA
:100374009C42FBD130BD64461346002CF4D1F9E70E
:1003840003461446BFE71A46A446E0E770B5174C87
:100394002568D5F84841DCB165681F2D23DC80B1A0
:1003A4004FF0010C04EB850ECEF88820D4F8886158
:1003B4000CFA05F216430228C4F88861CEF8083115
:1003C4000BD06B1C02356360002044F8251070BD0F
:1003D40005F5A674C5F84841DEE7D4F88C3113431B
:1003E400C4F88C31EDE74FF0FF3070BD44220008B3
:1003F40000B583B0164B5A6942F002025A615A6939
:1004040002F002020092009A5A6942F001025A6113
:100414005B6903F001030193019B002211460E2046
:1004240000F0A2FA0E2000F0D7FA002211460F20A5
:1004340000F09AFA0F2000F0CFFA0022114639207A
:1004440000F092FA392000F0C7FA03B05DF804FB1B
:100454000010024084B0134B9A6942F010029A6172
:100464009A6902F010020092009A9A6942F02002FE
:100474009A619A6902F020020192019A9A6942F003
:1004840004029A619A6902F004020292029A9A6939
:1004940042F008029A619B6903F008030393039BEB
:1004A40004B070470010024038B5094B834200D0B5
:1004B40038BD084D1C464FF6FF730A4629462046B0
:1004C40001F065FBC8222946204601F071FEEFE7E2
:1004D4007C050020C405002072B6FEE700B591B08B
:1004E4002822002106A8FFF7FFFE002301930293B0
:1004F400039304930593012206924FF480330793E8
:100504000A9202220D920E934FF4E0130F9306A861
:1005140000F0A6FE80B90F2301930221029100236B
:1005240003934FF480620492059301A801F0CAF882
:1005340020B911B05DF804FBFFF7CEFFFFF7CCFF45
:1005440008B500F0DBF9FFF7C9FFFFF783FFFFF7FA
:100554004FFF00F00DF800F0EFF8C82202490348FD
:1005640001F026FEFEE700BFC40500207C05002044
:1005740008B50F480F4B03604FF4827343600023A8
:100584008360C36002220261012242614FF400725F
:1005940082610822C2610362436283620A23C362E6
:1005A40001F06CF900B908BDFFF796FFFBE700BF47
:1005B4009C040020003C004010B586B00023029348
:1005C40003930493059302681D4B9A4201D006B02D
:1005D40010BD044603F5EA33DA6942F40042DA61F5
:1005E400DA6902F400420092009A9A6942F0080221
:1005F4009A619B6903F008030193019B28230293EA
:10060400022303930323059302A90E4800F0F2FC8E
:100614000D480E4B03601023436000238360802247
:10062400C260036143618361C36100F00DFA18B9CC
:10063400054BA3645C62CAE7FFF74EFFF8E700BF0F
:10064400003C0040000C0140580400201C040240FF
:1006540082B00E4B9A6942F001029A619A6902F0E3
:1006640001020092009ADA6942F08052DA61DB6991
:1006740003F080530193019B054A536823F0E06320
:1006840043F00073536002B0704700BF0010024093
:1006940000000140FEE7FEE7FEE7FEE7FEE77047E5
:1006A4007047704708B500F03BF908BD08B502482B
:1006B40000F02AFB08BD00BF3805002008B5024839
:1006C40000F022FB08BD00BFF404002008B5024876
:1006D40001F07CFB08BD00BF7C05002008B5024882
:1006E40000F012FB08BD00BF580400200F4B1A682D
:1006F40042F001021A6059680D4A0A405A601A68A9
:1007040022F0847222F480321A601A6822F4802261
:100714001A605A6822F4FE025A604FF41F029A606B
:10072400044B4FF000629A60704700BF0010024013
:100734000000FFF800ED00E008B50A480A4B03602A
:100744004FF4E133436000238360C36003610C22F0
:1007540042618361C36101F0EAF900B908BDFFF7A2
:10076400BBFEFBE77C0500200038014070B586B075
:10077400002302930393049305930268334B9A4234
:1007840001D006B070BD044603F558439A6942F49B
:1007940080429A619A6902F480420092009A9A69AE
:1007A40042F004029A619B6903F004030193019BE4
:1007B4004FF4007302930223039303230593244EFF
:1007C40002A9304600F016FC4FF480630293002522
:1007D4000395049502A9304600F00CFC1D481E4BFD
:1007E40003601023436085608023C3600561456115
:1007F40085614FF48053C36100F026F9F8B9154BB5
:10080400A3635C621548164B036000234360836056
:100814008022C2600361436183614FF48053C361EA
:1008240000F012F970B90D4BE3635C6200221146CB
:10083400252000F099F8252000F0CEF8A1E7FFF775
:100844004BFEDCE7FFF748FEEDE700BF0038014050
:10085400000801403805002044000240F404002050
:1008640058000240002103E00B4B5B584350043115
:100874000A480B4B42189A42F6D30A4A02E0002374
:1008840042F8043B084B9A42F9D3FFF72FFFFFF7D6
:1008940007FDFFF755FE7047802200080000002086
:1008A4003C0400203C04002090060020FEE70000E9
:1008B40010B504460E4B18784FF47A73B3FBF0F37B
:1008C4000C4A1068B0FBF3F000F094F868B90F2CF0
:1008D40001D901200AE0002221464FF0FF3000F048
:1008E40043F8054B1C60002000E0012010BD00BF50
:1008F40034040020300400203804002008B5074ADE
:10090400136843F010031360032000F01BF80F205A
:10091400FFF7CEFFFFF79CFE002008BD0020024039
:10092400034A1168034B1B780B441360704700BFE4
:100934008C06002034040020014B1868704700BF67
:100944008C060020074AD36823F4E0631B041B0CC5
:10095400000200F4E060034343F0BF6343F4003358
:10096400D360704700ED00E000B5194BDB68C3F3BA
:100974000223C3F1070CBCF1040F28BF4FF0040C91
:1009840003F1040EBEF1060F18D9033B4FF0FF3EEE
:100994000EFA0CFC21EA0C0199400EFA03F322EA48
:1009A4000303194300280BDB0901C9B200F16040BD
:1009B40000F5614080F800135DF804FB0023E5E7CF
:1009C40000F00F000901C9B2024B1954F4E700BF4B
:1009D40000ED00E014ED00E0002807DB00F01F024A
:1009E400400901239340024A42F82030704700BF77
:1009F40000E100E00138B0F1807F0BD24FF0E0233A
:100A04005861054AF02182F82310002098610722DA
:100A14001A6170470120704700ED00E030B40124F2
:100A2400056CAC40C56B6C60046863604368102B54
:100A340005D0036899600368DA6030BC70470368C6
:100A44009A600368D960F8E700283AD010B40246E7
:100A540000681D4B984229D81C4B03441C49A1FB38
:100A640003131B099B0013641A4BD363022382F8FC
:100A74002130016821F47F5121F0300153689468DA
:100A84002343D46823431469234354692343946957
:100A94002343D46923430B43036000209063012361
:100AA40082F8213082F8200010BC70470A4B0344BE
:100AB4000749A1FB03131B099B001364074BD36372
:100AC400D4E70120704700BF07040240F8FFFDBFD0
:100AD400CDCCCCCC00000240F8FBFDBF00040240AA
:100AE40038B5044690F82000012832D0012084F85B
:100AF400200094F82100C0B2012804D0002384F817
:100B04002030022038BD022084F821000020A06398
:100B14002568286820F0010028602046FFF77EFF42
:100B2400E36A5BB12268136843F00E031360226822
:100B3400136843F0010313600020E3E7226813689D
:100B440023F0040313602268136843F00A0313605C
:100B5400EDE70220D6E790F82130DBB2022B06D075
:100B640004238363002380F8203001207047026847
:100B7400136823F00E0313600268136823F0010363
:100B84001360036CC16B012202FA03F34B6080F81B
:100B94002120002380F820301846704708B590F8CB
:100BA4002130DBB2022B03D004238363012008BD70
:100BB4000268136823F00E0313600268136823F0BD
:100BC4000103136003684C4A93424ED9783A934226
:100BD40024D01432934230D0143293422FD01432A2
:100BE40093422FD0143293422FD0143293422FD0F9
:100BF400143293422FD002F5627293422ED01432F3
:100C040093422DD0143293422CD01432934202D00A
:100C14004FF4803203E04FF4805200E00122374B5E
:100C24005A60012380F82130002380F82030436B80
:100C3400002B5ED098470020B9E71022EFE74FF46D
:100C44008072ECE74FF48052E9E74FF48032E6E734
:100C54004FF48012E3E74FF08072E0E70122DEE711
:100C64001022DCE74FF48072D9E7254A934224D05E
:100C74001432934225D01432934224D01432934236
:100C840024D01432934224D01432934224D0143208
:100C9400934224D002F56272934223D014329342D9
:100CA40022D01432934221D01432934202D04FF412
:100CB400803203E04FF4805200E00122114B5A606D
:100CC400AFE71022FAE74FF48072F7E74FF480524F
:100CD400F4E74FF48032F1E74FF48012EEE74FF07F
:100CE4008072EBE70122E9E71022E7E74FF4807214
:100CF400E4E700205BE700BF8000024000040240FC
:100D0400080002400000024038B5C36B1A6804684A
:100D14002568016C04238B40134200F09B8015F07E
:100D2400040F00F09780236813F0200F03D1236889
:100D340023F00403236003689A4A934246D9783A1D
:100D4400934224D01432934228D01432934227D0B1
:100D54001432934227D01432934227D01432934250
:100D640027D01432934227D002F56272934226D0E0
:100D74001432934225D01432934224D01432934235
:100D840002D04FF4802203E04FF4804200E00422BA
:100D9400854B5A60C36A03B1984738BD4022F7E7D0
:100DA4004FF48062F4E74FF48042F1E74FF480227D
:100DB400EEE74FF48002EBE74FF08062E8E70422AD
:100DC400E6E74022E4E74FF48062E1E7774A9342A2
:100DD40024D01432934225D01432934224D01432B6
:100DE400934224D01432934224D01432934224D018
:100DF4001432934224D002F56272934223D0143207
:100E0400934222D01432934221D01432934202D01E
:100E14004FF4802203E04FF4804200E00422644B4C
:100E24005A60B7E74022FAE74FF48062F7E74FF4DD
:100E34008042F4E74FF48022F1E74FF48002EEE7BA
:100E44004FF08062EBE70422E9E74022E7E74FF442
:100E54008062E4E702238B40134200F0AB8015F07C
:100E6400020F00F0A780236813F0200F06D1236837
:100E740023F00A032360012380F821300368494AE0
:100E840093424BD9783A934224D0143293422DD0D2
:100E9400143293422CD0143293422CD01432934205
:100EA4002CD0143293422CD0143293422CD002F51D
:100EB400627293422BD0143293422AD0143293425A
:100EC40029D01432934202D04FF4003203E04FF49D
:100ED400005200E00222344B5A60002380F8203094
:100EE400836A002B3FF459AF984756E72022F2E774
:100EF4004FF40072EFE74FF40052ECE74FF4003286
:100F0400E9E74FF40012E6E74FF00072E3E702224C
:100F1400E1E72022DFE74FF40072DCE7234A934243
:100F240024D01432934225D01432934224D0143264
:100F3400934224D01432934224D01432934224D0C6
:100F44001432934224D002F56272934223D01432B5
:100F5400934222D01432934221D01432934202D0CD
:100F64004FF4003203E04FF4005200E00222104B31
:100F74005A60B2E72022FAE74FF40072F7E74FF421
:100F84000052F4E74FF40032F1E74FF40012EEE7B9
:100F94004FF00072EBE70222E9E72022E7E74FF483
:100FA4000072E4E7800002400004024008000240AE
:100FB40000000240082303FA01F111423FF4EDAEB0
:100FC40015F0080F3FF4E9AE236823F00E03236005
:100FD400026CC16B012303FA02F24A60836380F856
:100FE4002130002380F82030036B002B3FF4D5AE72
:100FF4009847D2E670B582B00024A446B0E0874D8D
:10100400AA4210D007D9864DAA420CD005F58035E6
:10101400AA4208D013E0A5F58015AA4203D005F52D
:101024007025AA4207D18A68002A62D0012A5BD0BF
:101034004361082403E0A5F58015AA42F3D0BEF16C
:10104400FF0F58D80646BEF1FF0F56D84FEA8C0260
:1010540033680F25954023EA050304FA02F213438B
:1010640033604B6813F0805F78D06E4B9A6942F01E
:1010740001029A619B6903F001030193019B4FEA0A
:101084009C02951C684B53F825600CF003039D00EB
:101094000F23AB4026EA0306644B984233D003F592
:1010A4008063984200F0988003F58063984200F0D2
:1010B400958003F58063984200F0928003F5806385
:1010C400984200F08F8003F58063984219D006237C
:1010D4001AE0CC68B3E7CC680434B0E7CC680834D1
:1010E400ADE7CC680C34AAE703610824A7E7002421
:1010F400A5E70424A3E7061DA5E7ACF108029200C6
:10110400A6E7052300E00023AB4033430232464DFB
:1011140045F822304B6813F4801F65D0444A936825
:1011240043EA0E0393604B6813F4001F62D0404AF5
:10113400D36843EA0E03D3604B6813F4003F5FD0D7
:101144003B4A536843EA0E0353604B6813F4803FF1
:101154005CD0374A136843EA0E0313600CF1010CA8
:101164000A6832FA0CF357D0012303FA0CF302EAAB
:10117400030E33EA0202F1D14A68122A3FF63FAF66
:10118400122A3FF65CAF01A555F822F02B10000897
:10119400D7100008E1100008F310000843100008FD
:1011A40043100008431000084310000843100008CF
:1011B40043100008431000084310000843100008BF
:1011C40043100008431000084310000843100008AF
:1011D400DB100008E7100008012395E7022393E7DA
:1011E400032391E704238FE7114A936823EA0E034C
:1011F400936098E70E4AD36823EA0E03D3609BE713
:101204000B4A536823EA0E0353609EE7084A1368A7
:1012140023EA0E031360A1E702B070BD00002210A0
:10122400000031100010024000000140000801409D
:101234000004014082B0084B1B68084AA2FB032348
:101244005B0A00FB03F3019300BF019B5A1E01924A
:10125400002BF9D102B0704730040020D34D621046
:10126400002800F0F18170B582B00446036813F0E1
:10127400010F2CD0994B5B6803F00C03042B1DD099
:10128400964B5B6803F00C03082B12D06368B3F52C
:10129400803F41D0002B55D103F1804303F5043343
:1012A4001A6822F480321A601A6822F480221A60C2
:1012B40037E08A4B5B6813F4803FE7D0874B1B68A9
:1012C40013F4003F03D06368002B00F0BF81236850
:1012D40013F0020F75D0814B5B6813F00C0F5FD0D5
:1012E4007E4B5B6803F00C03082B54D02369002B5E
:1012F40000F08A807A4B01221A60FFF71DFB054635
:10130400764B1B6813F0020F75D1FFF715FB401BDA
:101314000228F5D903209EE1704A136843F4803310
:101324001360636843B3FFF707FB05466B4B1B6809
:1013340013F4003FCBD1FFF7FFFA401B6428F5D923
:10134400032088E1B3F5A02F09D0644B1A6822F476
:1013540080321A601A6822F480221A60E1E703F1ED
:101364008043A3F53C331A6842F480221A601A6859
:1013740042F480321A60D4E7FFF7DEFA0546574B91
:101384001B6813F4003FA2D0FFF7D6FA401B642871
:10139400F5D903205FE1514B5B6813F4803FA5D17D
:1013A4004E4B1B6813F0020F03D02369012B40F04E
:1013B4004F814A4A136823F0F803616943EAC10381
:1013C4001360236813F0080F33D0A369002B5CD09B
:1013D400434B0122C3F88024FFF7AEFA05463F4B86
:1013E4005B6A13F0020F21D1FFF7A6FA401B022813
:1013F400F5D903202FE1394A136823F0F803616912
:1014040043EAC1031360DCE7354B00221A60FFF79F
:1014140093FA0546314B1B6813F0020FD1D0FFF746
:101424008BFA401B0228F5D9032014E10120FFF7B1
:1014340001FF236813F0040F00F09680274BDB694B
:1014440013F0805F34D1254BDA6942F08052DA61BF
:10145400DB6903F080530193019B0125214B1B6839
:1014640013F4807F26D0E368012B3DD0002B53D1A9
:1014740003F1804303F504331A6A22F001021A626D
:101484001A6A22F004021A6233E0154B0022C3F8F0
:101494008024FFF751FA0546104B5B6A13F0020FE4
:1014A400C7D0FFF749FA401B0228F5D90320D2E040
:1014B4000025D3E70B4A136843F480731360FFF7E6
:1014C4003BFA0646074B1B6813F4807FCBD1FFF72A
:1014D40033FA801B6428F5D90320BCE000100240D5
:1014E40000004242007000405F4A136A43F0010367
:1014F4001362E36833B3FFF71FFA06465A4B1B6ABD
:1015040013F0020F2FD1FFF717FA801B41F2883333
:101514009842F3D903209EE0052B09D0524B1A6A56
:1015240022F001021A621A6A22F004021A62E0E747
:101534004D4B1A6A42F004021A621A6A42F001021E
:101544001A62D6E7FFF7F8F90646474B1B6A13F011
:10155400020F08D0FFF7F0F9801B41F2883398425C
:10156400F3D9032077E0E5B9E369002B72D03E4A52
:10157400526802F00C02082A56D0022B17D03B4BBB
:1015840000221A66FFF7D8F90446374B1B6813F09C
:10159400007F47D0FFF7D0F9001B0228F5D90320BC
:1015A40059E0314AD36923F08053D361DCE72F4BF0
:1015B40000221A66FFF7C0F905462B4B1B6813F08F
:1015C400007F06D0FFF7B8F9401B0228F5D90320A5
:1015D40041E0236AB3F5803F1AD023494B6823F4D2
:1015E4007413226A606A024313434B601F4B012247
:1015F4001A66FFF7A1F904461B4B1B6813F0007F22
:101604000ED1FFF799F9001B0228F5D9032022E037
:10161400154A536823F40033A1680B435360DCE795
:10162400002018E0002016E0012B16D00E4B5B685A
:1016340003F48031226A914211D103F47013626A77
:1016440093420ED1002006E001207047012002E001
:10165400012000E0002002B070BD0120FBE7012062
:10166400F9E70120F7E700BF001002400000424202
:101674000F4B5B6803F00C02082A01D00D48704739
:10168400C3F383420C49885C13F4803F0BD0084BAE
:101694005B68C3F34043094AD35C064A02FB00F08B
:1016A400B0FBF3F07047064B03FB00F0704700BF3C
:1016B4000010024000127A00602200087022000824
:1016C40000093D00002800F0A08070B50D460446D6
:1016D400524B1B6803F007038B420BD24F4A13682B
:1016E40023F007030B431360136803F007038B42D3
:1016F40040F08D80236813F0020F17D013F0040F0D
:1017040004D0474A536843F4E0635360236813F0FA
:10171400080F04D0424A536843F460535360404A6C
:10172400536823F0F003A1680B435360236813F05C
:10173400010F31D06368012B20D0022B25D0384A09
:10174400126812F0020F64D035494A6822F003028D
:1017540013434B60FFF7F0F80646314B5B6803F028
:101764000C036268B3EB820F16D0FFF7E5F8801B19
:1017740041F288339842F0D9032045E0284A1268A0
:1017840012F4003FE0D101203EE0254A126812F035
:10179400007FD9D1012037E0204B1B6803F00703F9
:1017A400AB420AD91D4A136823F007032B43136085
:1017B400136803F00703AB422DD1236813F0040F21
:1017C40006D0174A536823F4E063E1680B4353607F
:1017D400236813F0080F07D0114A536823F46053A9
:1017E400216943EAC1035360FFF742FF0C4B5B6876
:1017F400C3F303130B4AD35CD8400B4B18600B4B59
:101804001868FFF755F8002070BD012070470120CB
:10181400FAE70120F8E70120F6E700BF00200240C4
:101824000010024048220008300400203804002040
:10183400014B1868704700BF3004002008B5FFF75B
:10184400F7FF044B5B68C3F30223034AD35CD8401D
:1018540008BD00BF001002405822000808B5FFF779
:10186400E7FF044B5B68C3F3C223034AD35CD8404D
:1018740008BD00BF0010024058220008002856D0BE
:1018840010B50446436A33B94368B3F5827F05D083
:101894000023C36102E00023036143610023A362C8
:1018A40094F85130002B3CD0022384F85130226844
:1018B400136823F040031360636803F48273A2681F
:1018C40002F404421343E26802F4006213432269FF
:1018D40002F002021343626902F001021343A26997
:1018E40002F400721343E26902F038021343226ADD
:1018F40002F080021343A26A02F4005221681343E7
:101904000B60638B226803F0040353602268D3697D
:1019140023F40063D36100206065012384F851300F
:1019240010BD84F850302046FEF746FEBCE7012087
:101934007047026802F10C0353E8003F23F0C00330
:101944000C3242E800310029F3D1202380F84130E1
:101954007047026802F10C0353E8003F23F49073CC
:101964000C3242E800310029F3D1026802F1140379
:1019740053E8003F23F00103143242E80031002908
:10198400F3D1036B012B05D0202380F842300023D0
:1019940003637047026802F10C0353E8003F23F02D
:1019A40010030C3242E800310029F3D1ECE790F83F
:1019B4004130DBB2212B01D0022070478368B3F59C
:1019C400805F17D0036A5A1C02621A7803685A604F
:1019D400C38C9BB2013B9BB2C3844BB90268D368EE
:1019E40023F08003D3600268D36843F04003D360DC
:1019F400002070470369002BE4D1036A1B88026846
:101A0400C3F308035360036A02330362E0E7000090
:101A140010B504460268136923F44053C1680B43AC
:101A2400136183680269134342691A430168CB68EE
:101A340023F4B05323F00C031343CB6002685369BF
:101A440023F4407381690B4353610268134B9A4238
:101A540020D0FFF7F3FE024602EB820202EB820281
:101A640063689B00B2FBF3F20D48A0FB0231490905
:101A7400642303FB11231B013233A0FB03235B0903
:101A840003F0F00202EB011203F00F032168134488
:101A94008B6010BDFFF7E2FE0246DDE7003801402F
:101AA4001F85EB512DE9F04383B005460E461746DA
:101AB4009946DDF828802C68246836EA04030CBFB4
:101AC4004FF0010C4FF0000CBC4528D1B8F1FF3F9A
:101AD400F1D0FEF731FFA0EB0900404523D8B8F15F
:101AE400000F22D02B68DA6812F0040FE3D0802EA6
:101AF400E1D0402EDFD01A6812F0080FDBD00024AA
:101B040001941A6801925B680193019B2846FFF7D0
:101B140020FF08236B6485F84040012000E000208A
:101B240003B0BDE8F0830320FAE70320F8E760B3CD
:101B340010B5044690F8413013B3242384F841309F
:101B44002268D36823F40053D3602046FFF760FF74
:101B54002268136923F4904313612268536923F0C4
:101B64002A0353612268D36843F40053D3600020EE
:101B74006064202384F8413084F84230606310BDEF
:101B840080F84030FEF7F2FDD7E7012070472DE9D9
:101B9400F04182B01E4690F84130DBB2202B56D182
:101BA40004460D469046002955D00AB901204FE05D
:101BB40000234364212380F84130FEF7BDFE07462D
:101BC400A4F82480A4F82680A368B3F5805F02D02B
:101BD4004FF0000814E023692BB34FF000080FE026
:101BE400202384F84130032032E038F8023B226895
:101BF400C3F308035360E28C92B2013A92B2E284D6
:101C0400E38C9BB293B100963B4600228021204690
:101C1400FFF748FF0028E3D1002DE6D015F8012B8B
:101C240023685A60E7E7A8460025E9E700963B46A3
:101C3400002240212046FFF735FF18B9202384F8FD
:101C4400413005E0202384F84130032000E00220E5
:101C540002B0BDE8F0810120FAE7704708B50168D9
:101C6400CA6822F04002CA60202280F84120FFF7AF
:101C7400F4FF002008BD70477047704710B5446AF0
:101C840023685A6994F84130DBB2212B10D02368C1
:101C94005A6902F0400294F84230DBB2222B11D090
:101CA400636C43F0100363642046FFF7E6FF10BD46
:101CB40002F08002002AEAD00023E3842046FFF7E2
:101CC40038FEE4E7002AEBD00023E3852046FFF743
:101CD40040FEE5E708B5406A0023C385C384FFF7E7
:101CE400CCFF08BD90F84230DBB2222B69D1836867
:101CF400B3F5805F4FD0826AB3F5805F04D0002BC8
:101D040056D10369002B53D103685B681370836A4F
:101D140001338362C38D9BB2013B9BB2C385002B0D
:101D240051D100B583B00268D36823F02003D36097
:101D34000268D36823F48073D3600268536923F084
:101D440001035361202380F8423000234363036B73
:101D5400012B33D100230363026802F10C0353E81F
:101D6400003F23F010030C3242E800310029F3D184
:101D740003681A6812F0100F06D0002201921A6844
:101D840001925B680193019B818DFEF78DFB00201E
:101D940003B05DF804FB0269002AACD1826A0368CF
:101DA4005B68C3F308031380836A02338362B1E779
:101DB40003685B6803F07F031370A8E7FFF75BFF1A
:101DC400E5E70220704700207047000030B583B07B
:101DD400044602681368D068516913F00F0505D1F1
:101DE40013F0200F02D010F0200F19D12DB111F0F3
:101DF400010119D110F4907F16D1216B01297DD0F6
:101E040013F0800F03D010F0800F40F0188113F00E
:101E1400400F03D010F0400F40F0158103B030BDE7
:101E24002046FFF75FFFF9E713F0010F06D010F427
:101E3400807F03D0626C42F00102626413F0040FED
:101E440004D019B1626C42F00202626413F0020F12
:101E540004D019B1626C42F00402626413F0080FFA
:101E640007D010F0200F00D119B1626C42F00802C3
:101E74006264626C002AD1D013F0200F02D010F0FB
:101E8400200F29D123685B6903F04003626C12F0D0
:101E9400080F00D163B32046FFF75BFD23685B693D
:101EA40013F0400F20D0226802F1140353E8003FDE
:101EB40023F04003143242E800310029F3D1E36BEC
:101EC40073B1634A5A63E06BFEF768FE0028A5D03D
:101ED400E06B436B9847A1E72046FFF703FFD1E788
:101EE4002046FFF7CAFE99E72046FFF7C6FE95E7AE
:101EF4002046FFF7C2FE002363648FE713F0100F40
:101F04003FF47EAF10F0100F3FF47AAF002301933B
:101F14001368019353680193019B536913F0400FB5
:101F240051D0E26B13685B689BB2002B3FF476AF31
:101F3400A18D99427FF672AFE3859369202B37D048
:101F4400226802F10C0353E8003F23F480730C323F
:101F540042E800310029F3D1226802F1140353E866
:101F6400003F23F00103143242E800310029F3D189
:101F7400226802F1140353E8003F23F040031432B3
:101F840042E800310029F3D1202384F842300023B1
:101F94002363226802F10C0353E8003F23F010038B
:101FA4000C3242E800310029F3D1E06BFEF7D3FD97
:101FB40002236363A18DE38D9BB2C91A89B22046C3
:101FC400FEF772FA2AE7A18DE38D9BB2C91A89B292
:101FD400E38D9BB2002B3FF421AF00293FF41EAFE9
:101FE400226802F10C0353E8003F23F490730C328F
:101FF40042E800300028F3D1226802F1140353E8C8
:10200400003F23F00103143242E800300028F3D1EA
:10201400202384F8423000232363226802F10C0356
:1020240053E8003F23F010030C3242E8003000284C
:10203400F3D1022363632046FEF736FAEEE6204628
:10204400FFF7B5FCEAE62046FFF708FEE6E600BF28
:10205400D91C000808B5406A01234363036B012BB4
:1020640002D0FFF709FE08BD818D4908FEF71CFA6E
:10207400F9E708B50346406A1B681B6813F0200F94
:102084002BD10023C385026802F10C0353E8003FFF
:1020940023F480730C3242E800310029F3D1026842
:1020A40002F1140353E8003F23F00103143242E821
:1020B40000310029F3D1026802F1140353E8003F10
:1020C40023F04003143242E800310029F3D12023E5
:1020D40080F84230036B012B07D000234363036B6A
:1020E400012B0FD0FFF7C7FD08BD026802F10C03F6
:1020F40053E8003F23F010030C3242E8003100297A
:10210400F3D1EAE7818DFEF7CFF9EDE730B583B07F
:10211400044613468162828500254564222280F8A4
:102124004220C26B1F489062E26B1F48D062E26B90
:102134001E481063E26B556320680A46011DE06B7C
:10214400FEF7CEFC019523681A6801925B6801933F
:10215400019B23695BB1226802F10C0353E8003F41
:1021640043F480730C3242E800310029F3D1226831
:1021740002F1140353E8003F43F00103143242E830
:1021840000310029F3D1226802F1140353E8003F1F
:1021940043F04003143242E800310029F3D1002017
:1021A40003B030BD7720000859200008811C0008C6
:1021B40090F84230DBB2202B27D110B582B0044610
:1021C40029B312B9012002B010BD01230363002317
:1021D4004363FFF79BFF236B012B01D00120F2E740
:1021E4000023019323681A6801925B680193019BA1
:1021F400226802F10C0353E8003F43F010030C3251
:1022040042E800310029F3D1DDE7022070470120C4
:10221400D9E70000024B13B10248FEF725B8704716
:102224000000000079020008F8B500BFF8BC08BC43
:102234009E467047F8B500BFF8BC08BC9E46704780
:102244000800002000000000000000000102030458
:102254000607080900000000010203040203040544
:10226400060708090A0B0C0D0E0F101001020000DE
:08227400192200084D020008C8
:04227C00250200082F
:10228000080000200000000000000000F402002010
:102290005C030020C40300200000000000000000D8
:1022A000000000000000000000000000000000002E
:1022B000000000000000000000000000000000001E
:1022C000000000000000000000000000000000000E
:1022D00000000000000000000000000000000000FE
:1022E00000000000000000000000000000000000EE
:1022F00000000000000000000000000000000000DE
:1023000000000000000000000000000000000000CD
:1023100000000000000000000000000000000000BD
:1023200000000000000000000000000000000000AD
:1023300001000000000000000E33CDAB34126DE64A
:10234000ECDE05000B0000000000000000000000B3
:10235000000000000000000000000000000000007D
:10236000000000000000000000000000000000006D
:10237000000000000000000000000000000000005D
:10238000000000000000000000000000000000004D
:0C26B0000024F4000100000010000000F5
:04000005080008697E
:00000001FF
