:020000040800F2
:1000000000C000200D08000825060008270600088B
:10001000290600082B0600082D0600080000000035
:100020000000000000000000000000002F06000893
:1000300031060008000000003306000835060008FD
:10004000550800085508000855080008550800081C
:10005000550800085508000855080008550800080C
:1000600055080008550800085508000855080008FC
:1000700055080008550800085508000855080008EC
:1000800055080008550800085508000855080008DC
:1000900055080008550800085508000855080008CC
:1000A00055080008550800085508000855080008BC
:1000B00055080008550800085508000855080008AC
:1000C000550800085508000855080008550800089C
:1000D000550800085508000855080008550800088C
:1000E000550800085508000855080008550800087C
:1000F000550800085508000855080008550800086C
:10010000550800085508000855080008550800085B
:10011000550800085508000855080008550800084B
:10012000550800083D060008550800085508000855
:1001300000000000000000000000000000000000BF
:1001400000000000000000000000000000000000AF
:10015000000000000000000000000000000000009F
:10016000000000000000000000000000000000008F
:10017000000000000000000000000000000000007F
:10018000000000000000000000000000000000006F
:10019000000000000000000000000000000000005F
:1001A000000000000000000000000000000000004F
:1001B000000000000000000000000000000000003F
:1001C000000000000000000000000000000000002F
:1001D000000000000000000000000000000000001F
:0401E0005FF8E0F1F3
:1001E4000348044B834202D0034B03B118477047C2
:1001F4003C0400203C04002000000000054806499F
:100204000B1AD90F01EBA301491002D0034B03B120
:10021400184770473C0400203C0400200000000004
:1002240010B5064C237843B9FFF7DAFF044B13B13A
:100234000448AFF300800123237010BD3C04002068
:10024400000000003419000808B5044B1BB1044930
:100254000448AFF30080BDE80840CFE70000000089
:100264004004002034190008002301461A461846A9
:1002740000F08CB838B5084B084D5B1B9C1007D0B8
:10028400043B1D44013C55F804399847002CF9D12E
:10029400BDE8384001F052BB901900088C190008E1
:1002A40070B50D4E0D4D761BB61006D0002455F8D2
:1002B400043B01349847A642F9D1094E094D01F097
:1002C40037FB761BB61006D0002455F8043B0134E6
:1002D4009847A642F9D170BD841900088419000812
:1002E4008C19000884190008830730B548D0541EBF
:1002F400002A3FD00346CAB201E0013C3AD303F8D6
:10030400012B9D07F9D1032C2DD9CDB245EA052542
:100314000F2C45EA054536D9A4F1100222F00F0C42
:1003240003F1200EE6444FEA121C03F1100242E9E5
:10033400045542E9025510327245F8D10CF101021C
:1003440014F00C0F03EB021204F00F0C13D0ACF1F9
:10035400040323F003030433134442F8045B93427D
:10036400FBD10CF003042CB1CAB21C4403F8012BDA
:100374009C42FBD130BD64461346002CF4D1F9E70E
:1003840003461446BFE71A46A446E0E770B5174C87
:100394002568D5F84841DCB165681F2D23DC80B1A0
:1003A4004FF0010C04EB850ECEF88820D4F8886158
:1003B4000CFA05F216430228C4F88861CEF8083115
:1003C4000BD06B1C02356360002044F8251070BD0F
:1003D40005F5A674C5F84841DEE7D4F88C3113431B
:1003E400C4F88C31EDE74FF0FF3070BD4C190008B4
:1003F40000B583B00A4B5A6942F002025A615B6944
:1004040003F002030193019B00221146392000F0FE
:1004140091FA392000F0C6FA03B05DF804FB00BF7E
:100424000010024084B0134B9A6942F010029A61A2
:100434009A6902F010020092009A9A6942F020022E
:100444009A619A6902F020020192019A9A6942F033
:1004540004029A619A6902F004020292029A9A6969
:1004640042F008029A619B6903F008030393039B1B
:1004740004B070470010024072B6FEE700B591B0B8
:100484002822002106A8FFF72FFF002301930293DF
:10049400039304930593012206924FF48033079348
:1004A4000A9202220D920E934FF4E0130F9306A8C2
:1004B40000F0E6FD80B90F2301930221029100238D
:1004C40003934FF480620492059301A801F018F895
:1004D40020B911B05DF804FBFFF7CEFFFFF7CCFFA6
:1004E40008B500F0DDF9FFF7C9FFFFF79BFFFFF741
:1004F4007FFF00F003F800F06DF9FCE708B50F4842
:100504000F4B03604FF48273436000238360C36026
:1005140002220261012242614FF4007282610822C8
:10052400C2610362436283620A23C36201F0FCF87E
:1005340000B908BDFFF7A0FFFBE700BF9C04002043
:10054400003C004010B586B000230293039304934B
:10055400059302681D4B9A4201D006B010BD0446B3
:1005640003F5EA33DA6942F40042DA61DA6902F443
:1005740000420092009A9A6942F008029A619B69CB
:1005840003F008030193019B28230293022303939E
:100594000323059302A90E4800F03CFC0D480E4BC2
:1005A400036010234360002383608022C2600361E0
:1005B40043618361C36100F02DFA18B9054BA3644C
:1005C4005C62CAE7FFF758FFF8E700BF003C004051
:1005D400000C0140580400201C04024082B00E4B61
:1005E4009A6942F001029A619A6902F0010200924A
:1005F400009ADA6942F08052DA61DB6903F08053D1
:100604000193019B054A536823F0E06343F00073B0
:10061400536002B0704700BF001002400000014068
:10062400FEE7FEE7FEE7FEE7FEE770477047704728
:1006340008B500F047F908BD08B5024800F070FAA3
:1006440008BD00BF580400200F4B1A6842F0010295
:100654001A6059680D4A0A405A601A6822F0847276
:1006640022F480321A601A6822F480221A605A68CE
:1006740022F4FE025A604FF41F029A60044B4FF0BA
:1006840000629A60704700BF001002400000FFF84B
:1006940000ED00E010B50446054800F0B7FB012862
:1006A400FAD118222146034801F07CF810BD00BF9E
:1006B400580400209C04002082B0019117280CD813
:1006C4009DF80510064A00EB4000131859709DF878
:1006D400041011549DF806209A7002B0704700BFB0
:1006E4000C050020F8B5431EDBB2172B2DD9F8BD3D
:1006F40000F00102C3F1070615498F5C154A9755AE
:100704000EF00107C3F10F06CF5D97550CF00107FA
:10071400C3F11706C95D915540084FEA5E0E4FEAD2
:100724005C0C0133072BE3DD0A48FFF7B3FF013408
:10073400A542DCDD084904EB44028B18587811F813
:1007440002E093F802C00023ECE705460024EFE73B
:100754006C190008F40400200C05002038B5054687
:10076400002406E0064B19682046FFF7A5FF013474
:10077400E4B2A3B2AB42F5D3E8B2FFF7B3FF38BD9E
:100784006819000838B50546002406E0064B1968C8
:100794002046FFF791FF0134E4B2A3B2AB42F5D394
:1007A400E8B2FFF79FFF38BD6419000838B5054665
:1007B400002406E0064B19682046FFF77DFF01344C
:1007C400E4B2A3B2AB42F5D3E8B2FFF78BFF38BD76
:1007D4006019000808B50820FFF7C0FF4FF47A70CD
:1007E40000F082F81020FFF7CDFF4FF47A7000F08C
:1007F4007BF81820FFF7DAFF4FF47A7000F074F8F2
:100804001820FFF7D3FFFBE7002103E00B4B5B58F5
:10081400435004310A480B4B42189A42F6D30A4A11
:1008240002E0002342F8043B084B9A42F9D3FFF755
:100834000BFFFFF735FDFFF753FE704790190008D3
:10084400000000203C0400203C0400205805002047
:10085400FEE7000010B504460E4B18784FF47A7387
:10086400B3FBF0F30C4A1068B0FBF3F000F0A8F807
:1008740068B90F2C01D901200AE0002221464FF06B
:10088400FF3000F057F8054B1C60002000E0012009
:1008940010BD00BF340400203004002038040020C0
:1008A40008B5074A136843F010031360032000F0EF
:1008B4002FF80F20FFF7CEFFFFF790FE002008BDB2
:1008C40000200240034A1168034B1B780B44136059
:1008D400704700BF5405002034040020014B186801
:1008E400704700BF5405002038B50446FFF7F6FFF3
:1008F4000546B4F1FF3F02D0044B1B781C44FFF7BC
:10090400EDFF401BA042FAD338BD00BF34040020E1
:10091400074AD36823F4E0631B041B0C000200F4B1
:10092400E060034343F0BF6343F40033D360704794
:1009340000ED00E000B5194BDB68C3F30223C3F1FB
:10094400070CBCF1040F28BF4FF0040C03F1040E94
:10095400BEF1060F18D9033B4FF0FF3E0EFA0CFC14
:1009640021EA0C0199400EFA03F322EA0303194326
:1009740000280BDB0901C9B200F1604000F56140B9
:1009840080F800135DF804FB0023E5E700F00F0096
:100994000901C9B2024B1954F4E700BF00ED00E0AD
:1009A40014ED00E0002807DB00F01F0240090123DA
:1009B4009340024A42F82030704700BF00E100E053
:1009C4000138B0F1807F0BD24FF0E0235861054A23
:1009D400F02182F823100020986107221A617047E1
:1009E4000120704700ED00E030B40124056CAC40F8
:1009F400C56B6C60046863604368102B05D00368A2
:100A040099600368DA6030BC704703689A600368D1
:100A1400D960F8E700283AD010B4024600681D4BAC
:100A2400984229D81C4B03441C49A1FB03131B09FE
:100A34009B0013641A4BD363022382F821300168AC
:100A440021F47F5121F03001536894682343D46822
:100A54002343146923435469234394692343D46986
:100A640023430B43036000209063012382F8213069
:100A740082F8200010BC70470A4B03440749A1FBCD
:100A840003131B099B001364074BD363D4E70120B2
:100A9400704700BF07040240F8FFFDBFCDCCCCCCAB
:100AA40000000240F8FBFDBF0004024038B50446D4
:100AB40090F82000012831D0012084F8200094F817
:100AC4002100012804D0002384F82030022038BDFE
:100AD400022084F821000020A0632568286820F003
:100AE400010028602046FFF77FFFE36A5BB12268BC
:100AF400136843F00E0313602268136843F0010384
:100B040013600020E3E72268136823F004031360F2
:100B14002268136843F00A031360EDE70220D6E766
:100B240038B5C36B1A6804682568016C04238B40CC
:100B3400134200F09B8015F0040F00F097802368A7
:100B440013F0200F03D1236823F004032360036808
:100B54009A4A934246D9783A934224D01432934223
:100B640028D01432934227D01432934227D014321F
:100B7400934227D01432934227D01432934227D081
:100B840002F56272934226D01432934225D0143275
:100B9400934224D01432934202D04FF4802203E0D3
:100BA4004FF4804200E00422854B5A60C36A03B1CB
:100BB400984738BD4022F7E74FF48062F4E74FF4DA
:100BC4008042F1E74FF48022EEE74FF48002EBE736
:100BD4004FF08062E8E70422E6E74022E4E74FF4BE
:100BE4008062E1E7774A934224D01432934225D0BD
:100BF4001432934224D01432934224D014329342B8
:100C040024D01432934224D01432934224D002F5D7
:100C14006272934223D01432934222D0143293420C
:100C240021D01432934202D04FF4802203E04FF4D7
:100C3400804200E00422644B5A60B7E74022FAE79E
:100C44004FF48062F7E74FF48042F4E74FF48022D8
:100C5400F1E74FF48002EEE74FF08062EBE7042205
:100C6400E9E74022E7E74FF48062E4E702238B40A0
:100C7400134200F0AB8015F0020F00F0A780236848
:100C840013F0200F06D1236823F00A032360012305
:100C940080F821300368494A93424BD9783A934209
:100CA40024D0143293422DD0143293422CD01432D7
:100CB40093422CD0143293422CD0143293422CD031
:100CC400143293422CD002F5627293422BD0143228
:100CD40093422AD01432934229D01432934202D040
:100CE4004FF4003203E04FF4005200E00222344B90
:100CF4005A60002380F82030836A002B3FF459AFF8
:100D0400984756E72022F2E74FF40072EFE74FF4DA
:100D14000052ECE74FF40032E9E74FF40012E6E743
:100D24004FF00072E3E70222E1E72022DFE74FF40D
:100D34000072DCE7234A934224D01432934225D034
:100D44001432934224D01432934224D01432934266
:100D540024D01432934224D01432934224D002F586
:100D64006272934223D01432934222D014329342BB
:100D740021D01432934202D04FF4003203E04FF4F6
:100D8400005200E00222104B5A60B2E72022FAE738
:100D94004FF40072F7E74FF40052F4E74FF40032D7
:100DA400F1E74FF40012EEE74FF00072EBE7022296
:100DB400E9E72022E7E74FF40072E4E7800002400D
:100DC400000402400800024000000240082303FA25
:100DD40001F111423FF4EDAE15F0080F3FF4E9AE16
:100DE400236823F00E032360026CC16B012303FA12
:100DF40002F24A60836380F82130002380F82030B7
:100E0400036B002B3FF4D5AE9847D2E690F821004F
:100E14007047000070B582B00024A446B0E0874D4E
:100E2400AA4210D007D9864DAA420CD005F58035C8
:100E3400AA4208D013E0A5F58015AA4203D005F50F
:100E44007025AA4207D18A68002A62D0012A5BD0A1
:100E54004361082403E0A5F58015AA42F3D0BEF14E
:100E6400FF0F58D80646BEF1FF0F56D84FEA8C0242
:100E740033680F25954023EA050304FA02F213436D
:100E840033604B6813F0805F78D06E4B9A6942F000
:100E940001029A619B6903F001030193019B4FEAEC
:100EA4009C02951C684B53F825600CF003039D00CD
:100EB4000F23AB4026EA0306644B984233D003F574
:100EC4008063984200F0988003F58063984200F0B4
:100ED400958003F58063984200F0928003F5806367
:100EE400984200F08F8003F58063984219D006235E
:100EF4001AE0CC68B3E7CC680434B0E7CC680834B3
:100F0400ADE7CC680C34AAE703610824A7E7002402
:100F1400A5E70424A3E7061DA5E7ACF108029200A7
:100F2400A6E7052300E00023AB4033430232464DDD
:100F340045F822304B6813F4803F65D0444A136867
:100F440043EA0E0313604B6813F4003F62D0404A37
:100F5400536843EA0E0353604B6813F4801F5FD059
:100F64003B4A936843EA0E0393604B6813F4001FF3
:100F74005CD0374AD36843EA0E03D3600CF1010C0A
:100F84000A6832FA0CF357D0012303FA0CF302EA8D
:100F9400030E33EA0202F1D14A68122A3FF63FAF48
:100FA400122A3FF65CAF01A555F822F04B0E00085B
:100FB400F70E0008010F0008130F0008630E000865
:100FC400630E0008630E0008630E0008630E000839
:100FD400630E0008630E0008630E0008630E000829
:100FE400630E0008630E0008630E0008630E000819
:100FF400FB0E0008070F0008012395E7022393E77F
:10100400032391E704238FE7114A136823EA0E03AD
:10101400136098E70E4A536823EA0E0353609BE774
:101024000B4A936823EA0E0393609EE7084AD36849
:1010340023EA0E03D360A1E702B070BD00002210C2
:10104400000031100010024000000140000801407F
:101054000004014082B0084B1B68084AA2FB03232A
:101064005B0A00FB03F3019300BF019B5A1E01922C
:10107400002BF9D102B0704730040020D34D621028
:10108400002800F0F18170B582B00446036813F0C3
:10109400010F2CD0994B5B6803F00C03042B1DD07B
:1010A400964B5B6803F00C03082B12D06368B3F50E
:1010B400803F41D0002B55D103F1804303F5043325
:1010C4001A6822F480321A601A6822F480221A60A4
:1010D40037E08A4B5B6813F4803FE7D0874B1B688B
:1010E40013F4003F03D06368002B00F0BF81236832
:1010F40013F0020F75D0814B5B6813F00C0F5FD0B7
:101104007E4B5B6803F00C03082B54D02369002B3F
:1011140000F08A807A4B01221A60FFF7DFFB054654
:10112400764B1B6813F0020F75D1FFF7D7FB401BFA
:101134000228F5D903209EE1704A136843F48033F2
:101144001360636843B3FFF7C9FB05466B4B1B6829
:1011540013F4003FCBD1FFF7C1FB401B6428F5D942
:10116400032088E1B3F5A02F09D0644B1A6822F458
:1011740080321A601A6822F480221A60E1E703F1CF
:101184008043A3F53C331A6842F480221A601A683B
:1011940042F480321A60D4E7FFF7A0FB0546574BB0
:1011A4001B6813F4003FA2D0FFF798FB401B642890
:1011B400F5D903205FE1514B5B6813F4803FA5D15F
:1011C4004E4B1B6813F0020F03D02369012B40F030
:1011D4004F814A4A136823F0F803616943EAC10363
:1011E4001360236813F0080F33D0A369002B5CD07D
:1011F400434B0122C3F88024FFF770FB05463F4BA5
:101204005B6A13F0020F21D1FFF768FB401B022831
:10121400F5D903202FE1394A136823F0F8036169F3
:1012240043EAC1031360DCE7354B00221A60FFF781
:1012340055FB0546314B1B6813F0020FD1D0FFF765
:101244004DFB401B0228F5D9032014E10120FFF7D0
:1012540001FF236813F0040F00F09680274BDB692D
:1012640013F0805F34D1254BDA6942F08052DA61A1
:10127400DB6903F080530193019B0125214B1B681B
:1012840013F4807F26D0E368012B3DD0002B53D18B
:1012940003F1804303F504331A6A22F001021A624F
:1012A4001A6A22F004021A6233E0154B0022C3F8D2
:1012B4008024FFF713FB0546104B5B6A13F0020F03
:1012C400C7D0FFF70BFB401B0228F5D90320D2E05F
:1012D4000025D3E70B4A136843F480731360FFF7C8
:1012E400FDFA0646074B1B6813F4807FCBD1FFF74A
:1012F400F5FA801B6428F5D90320BCE000100240F5
:1013040000004242007000405F4A136A43F0010348
:101314001362E36833B3FFF7E1FA06465A4B1B6ADC
:1013240013F0020F2FD1FFF7D9FA801B41F2883353
:101334009842F3D903209EE0052B09D0524B1A6A38
:1013440022F001021A621A6A22F004021A62E0E729
:101354004D4B1A6A42F004021A621A6A42F0010200
:101364001A62D6E7FFF7BAFA0646474B1B6A13F030
:10137400020F08D0FFF7B2FA801B41F2883398427B
:10138400F3D9032077E0E5B9E369002B72D03E4A34
:10139400526802F00C02082A56D0022B17D03B4B9D
:1013A40000221A66FFF79AFA0446374B1B6813F0BB
:1013B400007F47D0FFF792FA001B0228F5D90320DB
:1013C40059E0314AD36923F08053D361DCE72F4BD2
:1013D40000221A66FFF782FA05462B4B1B6813F0AE
:1013E400007F06D0FFF77AFA401B0228F5D90320C4
:1013F40041E0236AB3F5803F1AD023494B6823F4B4
:101404007413226A606A024313434B601F4B012228
:101414001A66FFF763FA04461B4B1B6813F0007F40
:101424000ED1FFF75BFA001B0228F5D9032022E056
:10143400154A536823F40033A1680B435360DCE777
:10144400002018E0002016E0012B16D00E4B5B683C
:1014540003F48031226A914211D103F47013626A59
:1014640093420ED1002006E001207047012002E0E3
:10147400012000E0002002B070BD0120FBE7012044
:10148400F9E70120F7E700BF0010024000004242E4
:1014940086B0174B0FCB0DF1180C0CE90F0040F27E
:1014A4000123ADF80430134B5B6803F00C02082AE7
:1014B40002D0114806B07047C3F3834218326A441D
:1014C40012F8100C13F4803F0DD00A4B5B68C3F381
:1014D400404318336B4413F8143C074A02FB00F0F2
:1014E400B0FBF3F0E6E7054B03FB00F0E2E700BFD7
:1014F400701900080010024000127A0000093D0033
:10150400002800F0A08070B50D460446524B1B68BD
:1015140003F007038B420BD24F4A136823F00703EF
:101524000B431360136803F007038B4240F08D8074
:10153400236813F0020F17D013F0040F04D0474AA6
:10154400536843F4E0635360236813F0080F04D036
:10155400424A536843F460535360404A536823F04B
:10156400F003A1680B435360236813F0010F31D0DB
:101574006368012B20D0022B25D0384A126812F060
:10158400020F64D035494A6822F0030213434B60CA
:10159400FFF7A4F90646314B5B6803F00C0362685D
:1015A400B3EB820F16D0FFF799F9801B41F2883311
:1015B4009842F0D9032045E0284A126812F4003F0B
:1015C400E0D101203EE0254A126812F0007FD9D113
:1015D400012037E0204B1B6803F00703AB420AD914
:1015E4001D4A136823F007032B431360136803F0A9
:1015F4000703AB422DD1236813F0040F06D0174A1A
:10160400536823F4E063E1680B435360236813F0E9
:10161400080F07D0114A536823F46053216943EA41
:10162400C1035360FFF734FF0C4B5B68C3F3031330
:101634000B4AD35CD8400B4B18600B4B1868FFF770
:1016440009F9002070BD012070470120FAE701204C
:10165400F8E70120F6E700BF002002400010024036
:101664005019000830040020380400202DE9F0410E
:101674000646884617461D463468A46838EA0403BB
:101684000CBF4FF0010C4FF0000CBC4537D0B5F146
:10169400FF3FF1D0FFF722F9069BC01AA84201D2FE
:1016A400002DE9D13268536823F0E0035360736876
:1016B400B3F5827F0BD0B36AB3F5005F14D0012376
:1016C40086F85130002386F85030032018E0B368C0
:1016D400B3F5004F02D0B3F5806FECD132681368D4
:1016E40023F040031360E6E73268136823F40053E1
:1016F40013603268136843F400531360DFE700207B
:10170400BDE8F08110B582B004460B460092002279
:101714008021FFF7ABFF08B902B010BD636D43F041
:10172400200363650320F7E7002839D010B5044689
:101734000023836290F85130002B2CD0022384F8CC
:1017440051302268136823F0400313606368A26871
:101754001343E26813432269134362691343A26982
:1017640002F400721343E2691343226A1343A16A29
:1017740022680B431360638B226803F004035360F5
:101784002268D36923F40063D361002060650123D8
:1017940084F8513010BD80F85030FEF7D3FECDE709
:1017A4000120704738B590F85030012B5CD00446C6
:1017B400012380F8503090F85150EDB29D424DD144
:1017C40000294CD0002A4AD0032380F8513000234A
:1017D400436501638286C2868363436403648387AB
:1017E400C3878368B3F5004F2AD0A36C1F4ADA621B
:1017F400A36C1F4A9A62A36C1E4A1A63A36C00224C
:101804005A632268E38E9BB20C32216BA06CFFF703
:101814004DF90146D0B923681A6812F0400F03D17C
:101824001A6842F040021A602268536843F02003A9
:1018340053602268536843F0020353600D460EE080
:101844000268136843F480431360CEE7636D43F08A
:1018540010036365012384F8513000E0022500235E
:1018640084F85030284638BD0225FBE7811800086B
:10187400AF1800088D1800087047704708B5406A13
:10188400FFF7FBFF08BD704708B5406A026853685C
:1018940023F003035360436D43F0100343650123B6
:1018A40080F85130FFF7EFFF08BD30B583B005462F
:1018B400446AFFF713F82B681B6813F0200F23D139
:1018C400024621684B6823F020034B6021684B6873
:1018D40023F002034B6064212046FFF713FF18B185
:1018E400636D43F020036365A36833B901932368F0
:1018F400DA6801929B680193019B0023E38601232C
:1019040084F85130636D23B92046FFF7B5FF03B067
:1019140030BD2046FFF7B7FFF9E70000024B13B1D3
:101924000248FEF7A1BC70470000000079020008DD
:10193400F8B500BFF8BC08BC9E467047F8B500BFB8
:08194400F8BC08BC9E46704788
:10194C000800002000000000000000000102030459
:10195C000607080900000000005A00005A000000A9
:10196C00E0F8000002030405060708090A0B0C0D39
:08197C000E0F10100000000026
:08198400211900084D020008C2
:04198C002502000828
:10199000080000200000000000000000F402002009
:1019A0005C030020C40300200000000000000000D1
:1019B0000000000000000000000000000000000027
:1019C0000000000000000000000000000000000017
:1019D0000000000000000000000000000000000007
:1019E00000000000000000000000000000000000F7
:1019F00000000000000000000000000000000000E7
:101A000000000000000000000000000000000000D6
:101A100000000000000000000000000000000000C6
:101A200000000000000000000000000000000000B6
:101A300000000000000000000000000000000000A6
:101A400001000000000000000E33CDAB34126DE643
:101A5000ECDE05000B0000000000000000000000AC
:101A60000000000000000000000000000000000076
:101A70000000000000000000000000000000000066
:101A80000000000000000000000000000000000056
:101A90000000000000000000000000000000000046
:0C1DC0000024F4000100000010000000EE
:040000050800080DDA
:00000001FF
